{
  "contractName": "Donation",
  "abi": [
    {
      "inputs": [],
      "stateMutability": "nonpayable",
      "type": "constructor"
    },
    {
      "stateMutability": "payable",
      "type": "fallback",
      "payable": true
    },
    {
      "stateMutability": "payable",
      "type": "receive",
      "payable": true
    },
    {
      "inputs": [],
      "name": "donate",
      "outputs": [],
      "stateMutability": "payable",
      "type": "function",
      "payable": true
    },
    {
      "inputs": [],
      "name": "getDonatedAmount",
      "outputs": [
        {
          "internalType": "uint256",
          "name": "",
          "type": "uint256"
        }
      ],
      "stateMutability": "view",
      "type": "function",
      "constant": true
    }
  ],
  "bytecode": "0x60806040526000805534801561001457600080fd5b506000808190555033600160006101000a81548173ffffffffffffffffffffffffffffffffffffffff021916908373ffffffffffffffffffffffffffffffffffffffff16021790555061030f8061006c6000396000f3fe60806040526004361061002d5760003560e01c8063528ccbf414610036578063ed88c68e1461006157610034565b3661003457005b005b34801561004257600080fd5b5061004b61006b565b60405161005891906101e7565b60405180910390f35b610069610074565b005b60008054905090565b34600080828254610085919061021e565b925050819055506000600160009054906101000a900473ffffffffffffffffffffffffffffffffffffffff1673ffffffffffffffffffffffffffffffffffffffff16346040516100d4906101b2565b60006040518083038185875af1925050503d8060008114610111576040519150601f19603f3d011682016040523d82523d6000602084013e610116565b606091505b505090508061015a576040517f08c379a0000000000000000000000000000000000000000000000000000000008152600401610151906101c7565b60405180910390fd5b50565b600061016a60168361020d565b9150610175826102ad565b602082019050919050565b600061018d600083610202565b9150610198826102d6565b600082019050919050565b6101ac81610274565b82525050565b60006101bd82610180565b9150819050919050565b600060208201905081810360008301526101e08161015d565b9050919050565b60006020820190506101fc60008301846101a3565b92915050565b600081905092915050565b600082825260208201905092915050565b600061022982610274565b915061023483610274565b9250827fffffffffffffffffffffffffffffffffffffffffffffffffffffffffffffffff038211156102695761026861027e565b5b828201905092915050565b6000819050919050565b7f4e487b7100000000000000000000000000000000000000000000000000000000600052601160045260246000fd5b7f4661696c656420746f20646f6e617465206d6f6e657900000000000000000000600082015250565b5056fea264697066735822122065d497f276ce39add66dd533ee9f560b101ca3227669b7ace993bd7f49a64ed464736f6c63430008040033",
  "immutableReferences": {},
  "source": "// SPDX-License-Identifier: MIT\npragma solidity >=0.4.21 <8.10.0;\n\ncontract Donation {\n    uint totalDonatedAmount = 0;\n    address payable owner;\n    // address payable myWalletAddress = payable(0xa8A6E95e24AD709aa70DF381ac6B77466D440723);\n\n    constructor() {\n        totalDonatedAmount = 0;\n        owner = payable(msg.sender);\n    }\n\n    // function donate(uint amount) public payable returns (uint) {\n    function donate() public payable {\n    // function donate() public {\n        totalDonatedAmount += msg.value;\n        // totalDonatedAmount += amount;\n        //(bool sent, bytes memory data) = myWalletAddress.call{value: amount}(\"\");\n        // (bool sent, bytes memory data) = myWalletAddress.call{value: msg.value}(\"\");\n        (bool success,) = owner.call{value: msg.value}(\"\");\n        // owner.transfer(msg.value);\n        require(success, \"Failed to donate money\");\n    }\n    function getDonatedAmount() public view returns (uint) {\n        return totalDonatedAmount;\n    }\n    receive() external payable {\n        // custom function code\n    }\n\n    fallback() external payable {}\n}",
  "sourcePath": "/Users/adriancabal/Development/React_Apps/Web3/adrian-cabal-web-app/contracts/Donation.sol",
  "compiler": {
    "name": "solc",
    "version": "0.8.4+commit.c7e474f2.Emscripten.clang"
  },
  "schemaVersion": "3.4.6",
  "updatedAt": "2022-03-29T20:53:30.974Z",
  "networkType": "ethereum",
  "devdoc": {
    "kind": "dev",
    "methods": {},
    "version": 1
  },
  "userdoc": {
    "kind": "user",
    "methods": {},
    "version": 1
  }
}